{
  "_format": "hh-sol-artifact-1",
  "contractName": "NFTMarketplace",
  "sourceName": "contracts/NFTMARKETPLACE.sol",
  "abi": [
    {
      "inputs": [],
      "stateMutability": "nonpayable",
      "type": "constructor"
    },
    {
      "anonymous": false,
      "inputs": [
        {
          "indexed": true,
          "internalType": "address",
          "name": "owner",
          "type": "address"
        },
        {
          "indexed": true,
          "internalType": "address",
          "name": "approved",
          "type": "address"
        },
        {
          "indexed": true,
          "internalType": "uint256",
          "name": "tokenId",
          "type": "uint256"
        }
      ],
      "name": "Approval",
      "type": "event"
    },
    {
      "anonymous": false,
      "inputs": [
        {
          "indexed": true,
          "internalType": "address",
          "name": "owner",
          "type": "address"
        },
        {
          "indexed": true,
          "internalType": "address",
          "name": "operator",
          "type": "address"
        },
        {
          "indexed": false,
          "internalType": "bool",
          "name": "approved",
          "type": "bool"
        }
      ],
      "name": "ApprovalForAll",
      "type": "event"
    },
    {
      "anonymous": false,
      "inputs": [
        {
          "indexed": true,
          "internalType": "address",
          "name": "from",
          "type": "address"
        },
        {
          "indexed": true,
          "internalType": "address",
          "name": "to",
          "type": "address"
        },
        {
          "indexed": true,
          "internalType": "uint256",
          "name": "tokenId",
          "type": "uint256"
        }
      ],
      "name": "Transfer",
      "type": "event"
    },
    {
      "anonymous": false,
      "inputs": [
        {
          "indexed": true,
          "internalType": "uint256",
          "name": "tokenId",
          "type": "uint256"
        },
        {
          "indexed": false,
          "internalType": "address",
          "name": "seller",
          "type": "address"
        },
        {
          "indexed": false,
          "internalType": "address",
          "name": "owner",
          "type": "address"
        },
        {
          "indexed": false,
          "internalType": "uint256",
          "name": "price",
          "type": "uint256"
        },
        {
          "indexed": false,
          "internalType": "bool",
          "name": "sold",
          "type": "bool"
        }
      ],
      "name": "idMarketItemCreated",
      "type": "event"
    },
    {
      "inputs": [
        {
          "internalType": "address",
          "name": "to",
          "type": "address"
        },
        {
          "internalType": "uint256",
          "name": "tokenId",
          "type": "uint256"
        }
      ],
      "name": "approve",
      "outputs": [],
      "stateMutability": "nonpayable",
      "type": "function"
    },
    {
      "inputs": [
        {
          "internalType": "address",
          "name": "owner",
          "type": "address"
        }
      ],
      "name": "balanceOf",
      "outputs": [
        {
          "internalType": "uint256",
          "name": "",
          "type": "uint256"
        }
      ],
      "stateMutability": "view",
      "type": "function"
    },
    {
      "inputs": [
        {
          "internalType": "uint256",
          "name": "tokenId",
          "type": "uint256"
        }
      ],
      "name": "createMarketSale",
      "outputs": [],
      "stateMutability": "payable",
      "type": "function"
    },
    {
      "inputs": [
        {
          "internalType": "string",
          "name": "tokenURI",
          "type": "string"
        },
        {
          "internalType": "uint256",
          "name": "price",
          "type": "uint256"
        }
      ],
      "name": "createToken",
      "outputs": [
        {
          "internalType": "uint256",
          "name": "",
          "type": "uint256"
        }
      ],
      "stateMutability": "payable",
      "type": "function"
    },
    {
      "inputs": [],
      "name": "fetchItemsListed",
      "outputs": [
        {
          "components": [
            {
              "internalType": "uint256",
              "name": "tokenId",
              "type": "uint256"
            },
            {
              "internalType": "address payable",
              "name": "seller",
              "type": "address"
            },
            {
              "internalType": "address payable",
              "name": "owner",
              "type": "address"
            },
            {
              "internalType": "uint256",
              "name": "price",
              "type": "uint256"
            },
            {
              "internalType": "bool",
              "name": "sold",
              "type": "bool"
            }
          ],
          "internalType": "struct NFTMarketplace.MarketItem[]",
          "name": "",
          "type": "tuple[]"
        }
      ],
      "stateMutability": "view",
      "type": "function"
    },
    {
      "inputs": [],
      "name": "fetchMarketItem",
      "outputs": [
        {
          "components": [
            {
              "internalType": "uint256",
              "name": "tokenId",
              "type": "uint256"
            },
            {
              "internalType": "address payable",
              "name": "seller",
              "type": "address"
            },
            {
              "internalType": "address payable",
              "name": "owner",
              "type": "address"
            },
            {
              "internalType": "uint256",
              "name": "price",
              "type": "uint256"
            },
            {
              "internalType": "bool",
              "name": "sold",
              "type": "bool"
            }
          ],
          "internalType": "struct NFTMarketplace.MarketItem[]",
          "name": "",
          "type": "tuple[]"
        }
      ],
      "stateMutability": "view",
      "type": "function"
    },
    {
      "inputs": [],
      "name": "fetchMyNFT",
      "outputs": [
        {
          "components": [
            {
              "internalType": "uint256",
              "name": "tokenId",
              "type": "uint256"
            },
            {
              "internalType": "address payable",
              "name": "seller",
              "type": "address"
            },
            {
              "internalType": "address payable",
              "name": "owner",
              "type": "address"
            },
            {
              "internalType": "uint256",
              "name": "price",
              "type": "uint256"
            },
            {
              "internalType": "bool",
              "name": "sold",
              "type": "bool"
            }
          ],
          "internalType": "struct NFTMarketplace.MarketItem[]",
          "name": "",
          "type": "tuple[]"
        }
      ],
      "stateMutability": "view",
      "type": "function"
    },
    {
      "inputs": [
        {
          "internalType": "uint256",
          "name": "tokenId",
          "type": "uint256"
        }
      ],
      "name": "getApproved",
      "outputs": [
        {
          "internalType": "address",
          "name": "",
          "type": "address"
        }
      ],
      "stateMutability": "view",
      "type": "function"
    },
    {
      "inputs": [],
      "name": "getListingPrice",
      "outputs": [
        {
          "internalType": "uint256",
          "name": "",
          "type": "uint256"
        }
      ],
      "stateMutability": "view",
      "type": "function"
    },
    {
      "inputs": [
        {
          "internalType": "address",
          "name": "owner",
          "type": "address"
        },
        {
          "internalType": "address",
          "name": "operator",
          "type": "address"
        }
      ],
      "name": "isApprovedForAll",
      "outputs": [
        {
          "internalType": "bool",
          "name": "",
          "type": "bool"
        }
      ],
      "stateMutability": "view",
      "type": "function"
    },
    {
      "inputs": [],
      "name": "name",
      "outputs": [
        {
          "internalType": "string",
          "name": "",
          "type": "string"
        }
      ],
      "stateMutability": "view",
      "type": "function"
    },
    {
      "inputs": [
        {
          "internalType": "uint256",
          "name": "tokenId",
          "type": "uint256"
        }
      ],
      "name": "ownerOf",
      "outputs": [
        {
          "internalType": "address",
          "name": "",
          "type": "address"
        }
      ],
      "stateMutability": "view",
      "type": "function"
    },
    {
      "inputs": [
        {
          "internalType": "uint256",
          "name": "tokenId",
          "type": "uint256"
        },
        {
          "internalType": "uint256",
          "name": "price",
          "type": "uint256"
        }
      ],
      "name": "resellToken",
      "outputs": [],
      "stateMutability": "payable",
      "type": "function"
    },
    {
      "inputs": [
        {
          "internalType": "address",
          "name": "from",
          "type": "address"
        },
        {
          "internalType": "address",
          "name": "to",
          "type": "address"
        },
        {
          "internalType": "uint256",
          "name": "tokenId",
          "type": "uint256"
        }
      ],
      "name": "safeTransferFrom",
      "outputs": [],
      "stateMutability": "nonpayable",
      "type": "function"
    },
    {
      "inputs": [
        {
          "internalType": "address",
          "name": "from",
          "type": "address"
        },
        {
          "internalType": "address",
          "name": "to",
          "type": "address"
        },
        {
          "internalType": "uint256",
          "name": "tokenId",
          "type": "uint256"
        },
        {
          "internalType": "bytes",
          "name": "data",
          "type": "bytes"
        }
      ],
      "name": "safeTransferFrom",
      "outputs": [],
      "stateMutability": "nonpayable",
      "type": "function"
    },
    {
      "inputs": [
        {
          "internalType": "address",
          "name": "operator",
          "type": "address"
        },
        {
          "internalType": "bool",
          "name": "approved",
          "type": "bool"
        }
      ],
      "name": "setApprovalForAll",
      "outputs": [],
      "stateMutability": "nonpayable",
      "type": "function"
    },
    {
      "inputs": [
        {
          "internalType": "bytes4",
          "name": "interfaceId",
          "type": "bytes4"
        }
      ],
      "name": "supportsInterface",
      "outputs": [
        {
          "internalType": "bool",
          "name": "",
          "type": "bool"
        }
      ],
      "stateMutability": "view",
      "type": "function"
    },
    {
      "inputs": [],
      "name": "symbol",
      "outputs": [
        {
          "internalType": "string",
          "name": "",
          "type": "string"
        }
      ],
      "stateMutability": "view",
      "type": "function"
    },
    {
      "inputs": [
        {
          "internalType": "uint256",
          "name": "tokenId",
          "type": "uint256"
        }
      ],
      "name": "tokenURI",
      "outputs": [
        {
          "internalType": "string",
          "name": "",
          "type": "string"
        }
      ],
      "stateMutability": "view",
      "type": "function"
    },
    {
      "inputs": [
        {
          "internalType": "address",
          "name": "from",
          "type": "address"
        },
        {
          "internalType": "address",
          "name": "to",
          "type": "address"
        },
        {
          "internalType": "uint256",
          "name": "tokenId",
          "type": "uint256"
        }
      ],
      "name": "transferFrom",
      "outputs": [],
      "stateMutability": "nonpayable",
      "type": "function"
    },
    {
      "inputs": [
        {
          "internalType": "uint256",
          "name": "_listingPrice",
          "type": "uint256"
        }
      ],
      "name": "updateListingPrice",
      "outputs": [],
      "stateMutability": "payable",
      "type": "function"
    }
  ],
  "bytecode": "0x60806040526605543df729c0006009553480156200001c57600080fd5b506040518060400160405280601381526020017f4e4654204d657461766572736520546f6b656e000000000000000000000000008152506040518060400160405280600581526020017f4d594e465400000000000000000000000000000000000000000000000000000081525081600090816200009a919062000355565b508060019081620000ac919062000355565b5050503373ffffffffffffffffffffffffffffffffffffffff16600a60009054906101000a905050506200043c565b600081519050919050565b7f4e487b7100000000000000000000000000000000000000000000000000000000600052604160045260246000fd5b7f4e487b7100000000000000000000000000000000000000000000000000000000600052602260045260246000fd5b600060028204905060018216806200015d57607f821691505b60208210810362000173576200017262000115565b5b50919050565b60008190508160005260206000209050919050565b60006020601f8301049050919050565b600082821b905092915050565b600060088302620001dd7fffffffffffffffffffffffffffffffffffffffffffffffffffffffffffffffff826200019e565b620001e986836200019e565b95508019841693508086168417925050509392505050565b6000819050919050565b6000819050919050565b600062000236620002306200022a8462000201565b6200020b565b62000201565b9050919050565b6000819050919050565b620002528362000215565b6200026a62000261826200023d565b848454620001ab565b825550505050565b600090565b6200028162000272565b6200028e81848462000247565b505050565b5b81811015620002b657620002aa60008262000277565b60018101905062000294565b5050565b601f8211156200030557620002cf8162000179565b620002da846200018e565b81016020851015620002ea578190505b62000302620002f9856200018e565b83018262000293565b50505b505050565b600082821c905092915050565b60006200032a600019846008026200030a565b1980831691505092915050565b600062000345838362000317565b9150826002028217905092915050565b6200036082620000db565b67ffffffffffffffff8111156200037c576200037b620000e6565b5b62000388825462000144565b62000395828285620002ba565b600060209050601f831160018114620003cd5760008415620003b8578287015190505b620003c4858262000337565b86555062000434565b601f198416620003dd8662000179565b60005b828110156200040757848901518255600182019150602085019450602081019050620003e0565b8683101562000427578489015162000423601f89168262000317565b8355505b6001600288020188555050505b505050505050565b6142c5806200044c6000396000f3fe60806040526004361061012a5760003560e01c806372b3b620116100ab578063b88d4fde1161006f578063b88d4fde146103ea578063be9af53614610413578063c18763f71461042f578063c87b56dd1461045a578063e219fc7514610497578063e985e9c5146104b35761012a565b806372b3b6201461031f5780638fafd0211461034f57806395d89b411461037a578063a22cb465146103a5578063ae677aa3146103ce5761012a565b806323b872dd116100f257806323b872dd1461022857806342842e0e1461025157806345f8fa801461027a5780636352211e146102a557806370a08231146102e25761012a565b806301ffc9a71461012f57806306fdde031461016c578063081812fc14610197578063095ea7b3146101d457806312e85585146101fd575b600080fd5b34801561013b57600080fd5b5061015660048036038101906101519190612af7565b6104f0565b6040516101639190612b3f565b60405180910390f35b34801561017857600080fd5b506101816105d2565b60405161018e9190612bea565b60405180910390f35b3480156101a357600080fd5b506101be60048036038101906101b99190612c42565b610664565b6040516101cb9190612cb0565b60405180910390f35b3480156101e057600080fd5b506101fb60048036038101906101f69190612cf7565b6106aa565b005b34801561020957600080fd5b506102126107c1565b60405161021f9190612d46565b60405180910390f35b34801561023457600080fd5b5061024f600480360381019061024a9190612d61565b6107cb565b005b34801561025d57600080fd5b5061027860048036038101906102739190612d61565b61082b565b005b34801561028657600080fd5b5061028f61084b565b60405161029c9190612f0a565b60405180910390f35b3480156102b157600080fd5b506102cc60048036038101906102c79190612c42565b610b37565b6040516102d99190612cb0565b60405180910390f35b3480156102ee57600080fd5b5061030960048036038101906103049190612f2c565b610bbd565b6040516103169190612d46565b60405180910390f35b6103396004803603810190610334919061308e565b610c74565b6040516103469190612d46565b60405180910390f35b34801561035b57600080fd5b50610364610cb6565b6040516103719190612f0a565b60405180910390f35b34801561038657600080fd5b5061038f610f1e565b60405161039c9190612bea565b60405180910390f35b3480156103b157600080fd5b506103cc60048036038101906103c79190613116565b610fb0565b005b6103e860048036038101906103e39190612c42565b610fc6565b005b3480156103f657600080fd5b50610411600480360381019061040c91906131f7565b611060565b005b61042d60048036038101906104289190612c42565b6110c2565b005b34801561043b57600080fd5b506104446112fa565b6040516104519190612f0a565b60405180910390f35b34801561046657600080fd5b50610481600480360381019061047c9190612c42565b6115e6565b60405161048e9190612bea565b60405180910390f35b6104b160048036038101906104ac919061327a565b6116f8565b005b3480156104bf57600080fd5b506104da60048036038101906104d591906132ba565b6118ed565b6040516104e79190612b3f565b60405180910390f35b60007f80ac58cd000000000000000000000000000000000000000000000000000000007bffffffffffffffffffffffffffffffffffffffffffffffffffffffff1916827bffffffffffffffffffffffffffffffffffffffffffffffffffffffff191614806105bb57507f5b5e139f000000000000000000000000000000000000000000000000000000007bffffffffffffffffffffffffffffffffffffffffffffffffffffffff1916827bffffffffffffffffffffffffffffffffffffffffffffffffffffffff1916145b806105cb57506105ca82611981565b5b9050919050565b6060600080546105e190613329565b80601f016020809104026020016040519081016040528092919081815260200182805461060d90613329565b801561065a5780601f1061062f5761010080835404028352916020019161065a565b820191906000526020600020905b81548152906001019060200180831161063d57829003601f168201915b5050505050905090565b600061066f826119eb565b6004600083815260200190815260200160002060009054906101000a900473ffffffffffffffffffffffffffffffffffffffff169050919050565b60006106b582610b37565b90508073ffffffffffffffffffffffffffffffffffffffff168373ffffffffffffffffffffffffffffffffffffffff1603610725576040517f08c379a000000000000000000000000000000000000000000000000000000000815260040161071c906133cc565b60405180910390fd5b8073ffffffffffffffffffffffffffffffffffffffff16610744611a36565b73ffffffffffffffffffffffffffffffffffffffff16148061077357506107728161076d611a36565b6118ed565b5b6107b2576040517f08c379a00000000000000000000000000000000000000000000000000000000081526004016107a99061345e565b60405180910390fd5b6107bc8383611a3e565b505050565b6000600954905090565b6107dc6107d6611a36565b82611af7565b61081b576040517f08c379a0000000000000000000000000000000000000000000000000000000008152600401610812906134f0565b60405180910390fd5b610826838383611b8c565b505050565b61084683838360405180602001604052806000815250611060565b505050565b606060006108596007611e85565b905060008060005b83811015610901573373ffffffffffffffffffffffffffffffffffffffff16600b6000600184610891919061353f565b815260200190815260200160002060010160009054906101000a900473ffffffffffffffffffffffffffffffffffffffff1673ffffffffffffffffffffffffffffffffffffffff16036108ee576001836108eb919061353f565b92505b80806108f990613573565b915050610861565b5060008267ffffffffffffffff81111561091e5761091d612f63565b5b60405190808252806020026020018201604052801561095757816020015b610944612a2e565b81526020019060019003908161093c5790505b50905060005b84811015610b2c573373ffffffffffffffffffffffffffffffffffffffff16600b600060018461098d919061353f565b815260200190815260200160002060010160009054906101000a900473ffffffffffffffffffffffffffffffffffffffff1673ffffffffffffffffffffffffffffffffffffffff1603610b195760006001826109e9919061353f565b90506000600b60008381526020019081526020016000209050806040518060a0016040529081600082015481526020016001820160009054906101000a900473ffffffffffffffffffffffffffffffffffffffff1673ffffffffffffffffffffffffffffffffffffffff1673ffffffffffffffffffffffffffffffffffffffff1681526020016002820160009054906101000a900473ffffffffffffffffffffffffffffffffffffffff1673ffffffffffffffffffffffffffffffffffffffff1673ffffffffffffffffffffffffffffffffffffffff168152602001600382015481526020016004820160009054906101000a900460ff161515151581525050848681518110610afc57610afb6135bb565b5b6020026020010181905250600185610b14919061353f565b945050505b8080610b2490613573565b91505061095d565b508094505050505090565b600080610b4383611e93565b9050600073ffffffffffffffffffffffffffffffffffffffff168173ffffffffffffffffffffffffffffffffffffffff1603610bb4576040517f08c379a0000000000000000000000000000000000000000000000000000000008152600401610bab90613636565b60405180910390fd5b80915050919050565b60008073ffffffffffffffffffffffffffffffffffffffff168273ffffffffffffffffffffffffffffffffffffffff1603610c2d576040517f08c379a0000000000000000000000000000000000000000000000000000000008152600401610c24906136c8565b60405180910390fd5b600360008373ffffffffffffffffffffffffffffffffffffffff1673ffffffffffffffffffffffffffffffffffffffff168152602001908152602001600020549050919050565b6000610c806007611ed0565b6000610c8c6007611e85565b9050610c983382611ee6565b610ca28185612103565b610cac8184612170565b8091505092915050565b60606000610cc46007611e85565b90506000610cd26008611e85565b610cdc6007611e85565b610ce691906136e8565b90506000808267ffffffffffffffff811115610d0557610d04612f63565b5b604051908082528060200260200182016040528015610d3e57816020015b610d2b612a2e565b815260200190600190039081610d235790505b50905060005b84811015610f13573073ffffffffffffffffffffffffffffffffffffffff16600b6000600184610d74919061353f565b815260200190815260200160002060020160009054906101000a900473ffffffffffffffffffffffffffffffffffffffff1673ffffffffffffffffffffffffffffffffffffffff1603610f00576000600182610dd0919061353f565b90506000600b60008381526020019081526020016000209050806040518060a0016040529081600082015481526020016001820160009054906101000a900473ffffffffffffffffffffffffffffffffffffffff1673ffffffffffffffffffffffffffffffffffffffff1673ffffffffffffffffffffffffffffffffffffffff1681526020016002820160009054906101000a900473ffffffffffffffffffffffffffffffffffffffff1673ffffffffffffffffffffffffffffffffffffffff1673ffffffffffffffffffffffffffffffffffffffff168152602001600382015481526020016004820160009054906101000a900460ff161515151581525050848681518110610ee357610ee26135bb565b5b6020026020010181905250600185610efb919061353f565b945050505b8080610f0b90613573565b915050610d44565b508094505050505090565b606060018054610f2d90613329565b80601f0160208091040260200160405190810160405280929190818152602001828054610f5990613329565b8015610fa65780601f10610f7b57610100808354040283529160200191610fa6565b820191906000526020600020905b815481529060010190602001808311610f8957829003601f168201915b5050505050905090565b610fc2610fbb611a36565b8383612373565b5050565b600a60009054906101000a900473ffffffffffffffffffffffffffffffffffffffff1673ffffffffffffffffffffffffffffffffffffffff163373ffffffffffffffffffffffffffffffffffffffff1614611056576040517f08c379a000000000000000000000000000000000000000000000000000000000815260040161104d9061378e565b60405180910390fd5b8060098190555050565b61107161106b611a36565b83611af7565b6110b0576040517f08c379a00000000000000000000000000000000000000000000000000000000081526004016110a7906134f0565b60405180910390fd5b6110bc848484846124df565b50505050565b6000600b600083815260200190815260200160002060030154905080341461111f576040517f08c379a000000000000000000000000000000000000000000000000000000000815260040161111690613820565b60405180910390fd5b33600b600084815260200190815260200160002060020160006101000a81548173ffffffffffffffffffffffffffffffffffffffff021916908373ffffffffffffffffffffffffffffffffffffffff1602179055506001600b600084815260200190815260200160002060040160006101000a81548160ff0219169083151502179055506000600b600084815260200190815260200160002060020160006101000a81548173ffffffffffffffffffffffffffffffffffffffff021916908373ffffffffffffffffffffffffffffffffffffffff1602179055506112036008611ed0565b61120e303384611b8c565b600a60009054906101000a900473ffffffffffffffffffffffffffffffffffffffff1673ffffffffffffffffffffffffffffffffffffffff166108fc6009549081150290604051600060405180830381858888f19350505050158015611278573d6000803e3d6000fd5b50600b600083815260200190815260200160002060010160009054906101000a900473ffffffffffffffffffffffffffffffffffffffff1673ffffffffffffffffffffffffffffffffffffffff166108fc349081150290604051600060405180830381858888f193505050501580156112f5573d6000803e3d6000fd5b505050565b606060006113086007611e85565b905060008060005b838110156113b0573373ffffffffffffffffffffffffffffffffffffffff16600b6000600184611340919061353f565b815260200190815260200160002060020160009054906101000a900473ffffffffffffffffffffffffffffffffffffffff1673ffffffffffffffffffffffffffffffffffffffff160361139d5760018361139a919061353f565b92505b80806113a890613573565b915050611310565b5060008267ffffffffffffffff8111156113cd576113cc612f63565b5b60405190808252806020026020018201604052801561140657816020015b6113f3612a2e565b8152602001906001900390816113eb5790505b50905060005b848110156115db573373ffffffffffffffffffffffffffffffffffffffff16600b600060018461143c919061353f565b815260200190815260200160002060020160009054906101000a900473ffffffffffffffffffffffffffffffffffffffff1673ffffffffffffffffffffffffffffffffffffffff16036115c8576000600182611498919061353f565b90506000600b60008381526020019081526020016000209050806040518060a0016040529081600082015481526020016001820160009054906101000a900473ffffffffffffffffffffffffffffffffffffffff1673ffffffffffffffffffffffffffffffffffffffff1673ffffffffffffffffffffffffffffffffffffffff1681526020016002820160009054906101000a900473ffffffffffffffffffffffffffffffffffffffff1673ffffffffffffffffffffffffffffffffffffffff1673ffffffffffffffffffffffffffffffffffffffff168152602001600382015481526020016004820160009054906101000a900460ff1615151515815250508486815181106115ab576115aa6135bb565b5b60200260200101819052506001856115c3919061353f565b945050505b80806115d390613573565b91505061140c565b508094505050505090565b60606115f1826119eb565b600060066000848152602001908152602001600020805461161190613329565b80601f016020809104026020016040519081016040528092919081815260200182805461163d90613329565b801561168a5780601f1061165f5761010080835404028352916020019161168a565b820191906000526020600020905b81548152906001019060200180831161166d57829003601f168201915b50505050509050600061169b61253b565b905060008151036116b05781925050506116f3565b6000825111156116e55780826040516020016116cd92919061387c565b604051602081830303815290604052925050506116f3565b6116ee84612552565b925050505b919050565b3373ffffffffffffffffffffffffffffffffffffffff16600b600084815260200190815260200160002060020160009054906101000a900473ffffffffffffffffffffffffffffffffffffffff1673ffffffffffffffffffffffffffffffffffffffff161461179c576040517f08c379a000000000000000000000000000000000000000000000000000000000815260040161179390613912565b60405180910390fd5b60095434146117e0576040517f08c379a00000000000000000000000000000000000000000000000000000000081526004016117d7906139a4565b60405180910390fd5b6000600b600084815260200190815260200160002060040160006101000a81548160ff02191690831515021790555080600b60008481526020019081526020016000206003018190555033600b600084815260200190815260200160002060010160006101000a81548173ffffffffffffffffffffffffffffffffffffffff021916908373ffffffffffffffffffffffffffffffffffffffff16021790555030600b600084815260200190815260200160002060020160006101000a81548173ffffffffffffffffffffffffffffffffffffffff021916908373ffffffffffffffffffffffffffffffffffffffff1602179055506118de60086125ba565b6118e9333084611b8c565b5050565b6000600560008473ffffffffffffffffffffffffffffffffffffffff1673ffffffffffffffffffffffffffffffffffffffff16815260200190815260200160002060008373ffffffffffffffffffffffffffffffffffffffff1673ffffffffffffffffffffffffffffffffffffffff16815260200190815260200160002060009054906101000a900460ff16905092915050565b60007f01ffc9a7000000000000000000000000000000000000000000000000000000007bffffffffffffffffffffffffffffffffffffffffffffffffffffffff1916827bffffffffffffffffffffffffffffffffffffffffffffffffffffffff1916149050919050565b6119f481612616565b611a33576040517f08c379a0000000000000000000000000000000000000000000000000000000008152600401611a2a90613636565b60405180910390fd5b50565b600033905090565b816004600083815260200190815260200160002060006101000a81548173ffffffffffffffffffffffffffffffffffffffff021916908373ffffffffffffffffffffffffffffffffffffffff160217905550808273ffffffffffffffffffffffffffffffffffffffff16611ab183610b37565b73ffffffffffffffffffffffffffffffffffffffff167f8c5be1e5ebec7d5bd14f71427d1e84f3dd0314c0f7b2291e5b200ac8c7c3b92560405160405180910390a45050565b600080611b0383610b37565b90508073ffffffffffffffffffffffffffffffffffffffff168473ffffffffffffffffffffffffffffffffffffffff161480611b455750611b4481856118ed565b5b80611b8357508373ffffffffffffffffffffffffffffffffffffffff16611b6b84610664565b73ffffffffffffffffffffffffffffffffffffffff16145b91505092915050565b8273ffffffffffffffffffffffffffffffffffffffff16611bac82610b37565b73ffffffffffffffffffffffffffffffffffffffff1614611c02576040517f08c379a0000000000000000000000000000000000000000000000000000000008152600401611bf990613a36565b60405180910390fd5b600073ffffffffffffffffffffffffffffffffffffffff168273ffffffffffffffffffffffffffffffffffffffff1603611c71576040517f08c379a0000000000000000000000000000000000000000000000000000000008152600401611c6890613ac8565b60405180910390fd5b611c7e8383836001612657565b8273ffffffffffffffffffffffffffffffffffffffff16611c9e82610b37565b73ffffffffffffffffffffffffffffffffffffffff1614611cf4576040517f08c379a0000000000000000000000000000000000000000000000000000000008152600401611ceb90613a36565b60405180910390fd5b6004600082815260200190815260200160002060006101000a81549073ffffffffffffffffffffffffffffffffffffffff02191690556001600360008573ffffffffffffffffffffffffffffffffffffffff1673ffffffffffffffffffffffffffffffffffffffff168152602001908152602001600020600082825403925050819055506001600360008473ffffffffffffffffffffffffffffffffffffffff1673ffffffffffffffffffffffffffffffffffffffff16815260200190815260200160002060008282540192505081905550816002600083815260200190815260200160002060006101000a81548173ffffffffffffffffffffffffffffffffffffffff021916908373ffffffffffffffffffffffffffffffffffffffff160217905550808273ffffffffffffffffffffffffffffffffffffffff168473ffffffffffffffffffffffffffffffffffffffff167fddf252ad1be2c89b69c2b068fc378daa952ba7f163c4a11628f55a4df523b3ef60405160405180910390a4611e80838383600161265d565b505050565b600081600001549050919050565b60006002600083815260200190815260200160002060009054906101000a900473ffffffffffffffffffffffffffffffffffffffff169050919050565b6001816000016000828254019250508190555050565b600073ffffffffffffffffffffffffffffffffffffffff168273ffffffffffffffffffffffffffffffffffffffff1603611f55576040517f08c379a0000000000000000000000000000000000000000000000000000000008152600401611f4c90613b34565b60405180910390fd5b611f5e81612616565b15611f9e576040517f08c379a0000000000000000000000000000000000000000000000000000000008152600401611f9590613ba0565b60405180910390fd5b611fac600083836001612657565b611fb581612616565b15611ff5576040517f08c379a0000000000000000000000000000000000000000000000000000000008152600401611fec90613ba0565b60405180910390fd5b6001600360008473ffffffffffffffffffffffffffffffffffffffff1673ffffffffffffffffffffffffffffffffffffffff16815260200190815260200160002060008282540192505081905550816002600083815260200190815260200160002060006101000a81548173ffffffffffffffffffffffffffffffffffffffff021916908373ffffffffffffffffffffffffffffffffffffffff160217905550808273ffffffffffffffffffffffffffffffffffffffff16600073ffffffffffffffffffffffffffffffffffffffff167fddf252ad1be2c89b69c2b068fc378daa952ba7f163c4a11628f55a4df523b3ef60405160405180910390a46120ff60008383600161265d565b5050565b61210c82612616565b61214b576040517f08c379a000000000000000000000000000000000000000000000000000000000815260040161214290613c32565b60405180910390fd5b8060066000848152602001908152602001600020908161216b9190613dfe565b505050565b600081116121b3576040517f08c379a00000000000000000000000000000000000000000000000000000000081526004016121aa90613f1c565b60405180910390fd5b60095434146121f7576040517f08c379a00000000000000000000000000000000000000000000000000000000081526004016121ee90613fae565b60405180910390fd5b6040518060a001604052808381526020013373ffffffffffffffffffffffffffffffffffffffff1681526020013073ffffffffffffffffffffffffffffffffffffffff16815260200182815260200160001515815250600b60008481526020019081526020016000206000820151816000015560208201518160010160006101000a81548173ffffffffffffffffffffffffffffffffffffffff021916908373ffffffffffffffffffffffffffffffffffffffff16021790555060408201518160020160006101000a81548173ffffffffffffffffffffffffffffffffffffffff021916908373ffffffffffffffffffffffffffffffffffffffff1602179055506060820151816003015560808201518160040160006101000a81548160ff021916908315150217905550905050612330333084611b8c565b817fdebdb32cb5230ab727c9c361b16fdb2015df225c10e6a3e7f60ecd5dc5be451633308460006040516123679493929190613fce565b60405180910390a25050565b8173ffffffffffffffffffffffffffffffffffffffff168373ffffffffffffffffffffffffffffffffffffffff16036123e1576040517f08c379a00000000000000000000000000000000000000000000000000000000081526004016123d89061405f565b60405180910390fd5b80600560008573ffffffffffffffffffffffffffffffffffffffff1673ffffffffffffffffffffffffffffffffffffffff16815260200190815260200160002060008473ffffffffffffffffffffffffffffffffffffffff1673ffffffffffffffffffffffffffffffffffffffff16815260200190815260200160002060006101000a81548160ff0219169083151502179055508173ffffffffffffffffffffffffffffffffffffffff168373ffffffffffffffffffffffffffffffffffffffff167f17307eab39ab6107e8899845ad3d59bd9653f200f220920489ca2b5937696c31836040516124d29190612b3f565b60405180910390a3505050565b6124ea848484611b8c565b6124f684848484612663565b612535576040517f08c379a000000000000000000000000000000000000000000000000000000000815260040161252c906140f1565b60405180910390fd5b50505050565b606060405180602001604052806000815250905090565b606061255d826119eb565b600061256761253b565b9050600081511161258757604051806020016040528060008152506125b2565b80612591846127ea565b6040516020016125a292919061387c565b6040516020818303038152906040525b915050919050565b60008160000154905060008111612606576040517f08c379a00000000000000000000000000000000000000000000000000000000081526004016125fd9061415d565b60405180910390fd5b6001810382600001819055505050565b60008073ffffffffffffffffffffffffffffffffffffffff1661263883611e93565b73ffffffffffffffffffffffffffffffffffffffff1614159050919050565b50505050565b50505050565b60006126848473ffffffffffffffffffffffffffffffffffffffff166128b8565b156127dd578373ffffffffffffffffffffffffffffffffffffffff1663150b7a026126ad611a36565b8786866040518563ffffffff1660e01b81526004016126cf94939291906141d2565b6020604051808303816000875af192505050801561270b57506040513d601f19601f820116820180604052508101906127089190614233565b60015b61278d573d806000811461273b576040519150601f19603f3d011682016040523d82523d6000602084013e612740565b606091505b506000815103612785576040517f08c379a000000000000000000000000000000000000000000000000000000000815260040161277c906140f1565b60405180910390fd5b805181602001fd5b63150b7a0260e01b7bffffffffffffffffffffffffffffffffffffffffffffffffffffffff1916817bffffffffffffffffffffffffffffffffffffffffffffffffffffffff1916149150506127e2565b600190505b949350505050565b6060600060016127f9846128db565b01905060008167ffffffffffffffff81111561281857612817612f63565b5b6040519080825280601f01601f19166020018201604052801561284a5781602001600182028036833780820191505090505b509050600082602001820190505b6001156128ad578080600190039150507f3031323334353637383961626364656600000000000000000000000000000000600a86061a8153600a85816128a1576128a0614260565b5b04945060008503612858575b819350505050919050565b6000808273ffffffffffffffffffffffffffffffffffffffff163b119050919050565b600080600090507a184f03e93ff9f4daa797ed6e38ed64bf6a1f0100000000000000008310612939577a184f03e93ff9f4daa797ed6e38ed64bf6a1f010000000000000000838161292f5761292e614260565b5b0492506040810190505b6d04ee2d6d415b85acef81000000008310612976576d04ee2d6d415b85acef8100000000838161296c5761296b614260565b5b0492506020810190505b662386f26fc1000083106129a557662386f26fc10000838161299b5761299a614260565b5b0492506010810190505b6305f5e10083106129ce576305f5e10083816129c4576129c3614260565b5b0492506008810190505b61271083106129f35761271083816129e9576129e8614260565b5b0492506004810190505b60648310612a165760648381612a0c57612a0b614260565b5b0492506002810190505b600a8310612a25576001810190505b80915050919050565b6040518060a0016040528060008152602001600073ffffffffffffffffffffffffffffffffffffffff168152602001600073ffffffffffffffffffffffffffffffffffffffff168152602001600081526020016000151581525090565b6000604051905090565b600080fd5b600080fd5b60007fffffffff0000000000000000000000000000000000000000000000000000000082169050919050565b612ad481612a9f565b8114612adf57600080fd5b50565b600081359050612af181612acb565b92915050565b600060208284031215612b0d57612b0c612a95565b5b6000612b1b84828501612ae2565b91505092915050565b60008115159050919050565b612b3981612b24565b82525050565b6000602082019050612b546000830184612b30565b92915050565b600081519050919050565b600082825260208201905092915050565b60005b83811015612b94578082015181840152602081019050612b79565b60008484015250505050565b6000601f19601f8301169050919050565b6000612bbc82612b5a565b612bc68185612b65565b9350612bd6818560208601612b76565b612bdf81612ba0565b840191505092915050565b60006020820190508181036000830152612c048184612bb1565b905092915050565b6000819050919050565b612c1f81612c0c565b8114612c2a57600080fd5b50565b600081359050612c3c81612c16565b92915050565b600060208284031215612c5857612c57612a95565b5b6000612c6684828501612c2d565b91505092915050565b600073ffffffffffffffffffffffffffffffffffffffff82169050919050565b6000612c9a82612c6f565b9050919050565b612caa81612c8f565b82525050565b6000602082019050612cc56000830184612ca1565b92915050565b612cd481612c8f565b8114612cdf57600080fd5b50565b600081359050612cf181612ccb565b92915050565b60008060408385031215612d0e57612d0d612a95565b5b6000612d1c85828601612ce2565b9250506020612d2d85828601612c2d565b9150509250929050565b612d4081612c0c565b82525050565b6000602082019050612d5b6000830184612d37565b92915050565b600080600060608486031215612d7a57612d79612a95565b5b6000612d8886828701612ce2565b9350506020612d9986828701612ce2565b9250506040612daa86828701612c2d565b9150509250925092565b600081519050919050565b600082825260208201905092915050565b6000819050602082019050919050565b612de981612c0c565b82525050565b6000612dfa82612c6f565b9050919050565b612e0a81612def565b82525050565b612e1981612b24565b82525050565b60a082016000820151612e356000850182612de0565b506020820151612e486020850182612e01565b506040820151612e5b6040850182612e01565b506060820151612e6e6060850182612de0565b506080820151612e816080850182612e10565b50505050565b6000612e938383612e1f565b60a08301905092915050565b6000602082019050919050565b6000612eb782612db4565b612ec18185612dbf565b9350612ecc83612dd0565b8060005b83811015612efd578151612ee48882612e87565b9750612eef83612e9f565b925050600181019050612ed0565b5085935050505092915050565b60006020820190508181036000830152612f248184612eac565b905092915050565b600060208284031215612f4257612f41612a95565b5b6000612f5084828501612ce2565b91505092915050565b600080fd5b600080fd5b7f4e487b7100000000000000000000000000000000000000000000000000000000600052604160045260246000fd5b612f9b82612ba0565b810181811067ffffffffffffffff82111715612fba57612fb9612f63565b5b80604052505050565b6000612fcd612a8b565b9050612fd98282612f92565b919050565b600067ffffffffffffffff821115612ff957612ff8612f63565b5b61300282612ba0565b9050602081019050919050565b82818337600083830152505050565b600061303161302c84612fde565b612fc3565b90508281526020810184848401111561304d5761304c612f5e565b5b61305884828561300f565b509392505050565b600082601f83011261307557613074612f59565b5b813561308584826020860161301e565b91505092915050565b600080604083850312156130a5576130a4612a95565b5b600083013567ffffffffffffffff8111156130c3576130c2612a9a565b5b6130cf85828601613060565b92505060206130e085828601612c2d565b9150509250929050565b6130f381612b24565b81146130fe57600080fd5b50565b600081359050613110816130ea565b92915050565b6000806040838503121561312d5761312c612a95565b5b600061313b85828601612ce2565b925050602061314c85828601613101565b9150509250929050565b600067ffffffffffffffff82111561317157613170612f63565b5b61317a82612ba0565b9050602081019050919050565b600061319a61319584613156565b612fc3565b9050828152602081018484840111156131b6576131b5612f5e565b5b6131c184828561300f565b509392505050565b600082601f8301126131de576131dd612f59565b5b81356131ee848260208601613187565b91505092915050565b6000806000806080858703121561321157613210612a95565b5b600061321f87828801612ce2565b945050602061323087828801612ce2565b935050604061324187828801612c2d565b925050606085013567ffffffffffffffff81111561326257613261612a9a565b5b61326e878288016131c9565b91505092959194509250565b6000806040838503121561329157613290612a95565b5b600061329f85828601612c2d565b92505060206132b085828601612c2d565b9150509250929050565b600080604083850312156132d1576132d0612a95565b5b60006132df85828601612ce2565b92505060206132f085828601612ce2565b9150509250929050565b7f4e487b7100000000000000000000000000000000000000000000000000000000600052602260045260246000fd5b6000600282049050600182168061334157607f821691505b602082108103613354576133536132fa565b5b50919050565b7f4552433732313a20617070726f76616c20746f2063757272656e74206f776e6560008201527f7200000000000000000000000000000000000000000000000000000000000000602082015250565b60006133b6602183612b65565b91506133c18261335a565b604082019050919050565b600060208201905081810360008301526133e5816133a9565b9050919050565b7f4552433732313a20617070726f76652063616c6c6572206973206e6f7420746f60008201527f6b656e206f776e6572206f7220617070726f76656420666f7220616c6c000000602082015250565b6000613448603d83612b65565b9150613453826133ec565b604082019050919050565b600060208201905081810360008301526134778161343b565b9050919050565b7f4552433732313a2063616c6c6572206973206e6f7420746f6b656e206f776e6560008201527f72206f7220617070726f76656400000000000000000000000000000000000000602082015250565b60006134da602d83612b65565b91506134e58261347e565b604082019050919050565b60006020820190508181036000830152613509816134cd565b9050919050565b7f4e487b7100000000000000000000000000000000000000000000000000000000600052601160045260246000fd5b600061354a82612c0c565b915061355583612c0c565b925082820190508082111561356d5761356c613510565b5b92915050565b600061357e82612c0c565b91507fffffffffffffffffffffffffffffffffffffffffffffffffffffffffffffffff82036135b0576135af613510565b5b600182019050919050565b7f4e487b7100000000000000000000000000000000000000000000000000000000600052603260045260246000fd5b7f4552433732313a20696e76616c696420746f6b656e2049440000000000000000600082015250565b6000613620601883612b65565b915061362b826135ea565b602082019050919050565b6000602082019050818103600083015261364f81613613565b9050919050565b7f4552433732313a2061646472657373207a65726f206973206e6f74206120766160008201527f6c6964206f776e65720000000000000000000000000000000000000000000000602082015250565b60006136b2602983612b65565b91506136bd82613656565b604082019050919050565b600060208201905081810360008301526136e1816136a5565b9050919050565b60006136f382612c0c565b91506136fe83612c0c565b925082820390508181111561371657613715613510565b5b92915050565b7f4f6e6c79206f776e6572206f6620746865206d61726b6574706c61636520636160008201527f6e206368616e676520746865206c697374696e67207072696365000000000000602082015250565b6000613778603a83612b65565b91506137838261371c565b604082019050919050565b600060208201905081810360008301526137a78161376b565b9050919050565b7f506c65617365207375626d6974207468652061736b696e67207072696365206960008201527f6e206f7264657220746f20636f6d706c65746520746865207075726368617365602082015250565b600061380a604083612b65565b9150613815826137ae565b604082019050919050565b60006020820190508181036000830152613839816137fd565b9050919050565b600081905092915050565b600061385682612b5a565b6138608185613840565b9350613870818560208601612b76565b80840191505092915050565b6000613888828561384b565b9150613894828461384b565b91508190509392505050565b7f4f6e6c79206974656d206f776e65722063616e20706572666f726d207468697360008201527f206f7065726174696f6e00000000000000000000000000000000000000000000602082015250565b60006138fc602a83612b65565b9150613907826138a0565b604082019050919050565b6000602082019050818103600083015261392b816138ef565b9050919050565b7f5072696365206d75737420626520657175616c20746f206c697374696e67507260008201527f6963650000000000000000000000000000000000000000000000000000000000602082015250565b600061398e602383612b65565b915061399982613932565b604082019050919050565b600060208201905081810360008301526139bd81613981565b9050919050565b7f4552433732313a207472616e736665722066726f6d20696e636f72726563742060008201527f6f776e6572000000000000000000000000000000000000000000000000000000602082015250565b6000613a20602583612b65565b9150613a2b826139c4565b604082019050919050565b60006020820190508181036000830152613a4f81613a13565b9050919050565b7f4552433732313a207472616e7366657220746f20746865207a65726f2061646460008201527f7265737300000000000000000000000000000000000000000000000000000000602082015250565b6000613ab2602483612b65565b9150613abd82613a56565b604082019050919050565b60006020820190508181036000830152613ae181613aa5565b9050919050565b7f4552433732313a206d696e7420746f20746865207a65726f2061646472657373600082015250565b6000613b1e602083612b65565b9150613b2982613ae8565b602082019050919050565b60006020820190508181036000830152613b4d81613b11565b9050919050565b7f4552433732313a20746f6b656e20616c7265616479206d696e74656400000000600082015250565b6000613b8a601c83612b65565b9150613b9582613b54565b602082019050919050565b60006020820190508181036000830152613bb981613b7d565b9050919050565b7f45524337323155524953746f726167653a2055524920736574206f66206e6f6e60008201527f6578697374656e7420746f6b656e000000000000000000000000000000000000602082015250565b6000613c1c602e83612b65565b9150613c2782613bc0565b604082019050919050565b60006020820190508181036000830152613c4b81613c0f565b9050919050565b60008190508160005260206000209050919050565b60006020601f8301049050919050565b600082821b905092915050565b600060088302613cb47fffffffffffffffffffffffffffffffffffffffffffffffffffffffffffffffff82613c77565b613cbe8683613c77565b95508019841693508086168417925050509392505050565b6000819050919050565b6000613cfb613cf6613cf184612c0c565b613cd6565b612c0c565b9050919050565b6000819050919050565b613d1583613ce0565b613d29613d2182613d02565b848454613c84565b825550505050565b600090565b613d3e613d31565b613d49818484613d0c565b505050565b5b81811015613d6d57613d62600082613d36565b600181019050613d4f565b5050565b601f821115613db257613d8381613c52565b613d8c84613c67565b81016020851015613d9b578190505b613daf613da785613c67565b830182613d4e565b50505b505050565b600082821c905092915050565b6000613dd560001984600802613db7565b1980831691505092915050565b6000613dee8383613dc4565b9150826002028217905092915050565b613e0782612b5a565b67ffffffffffffffff811115613e2057613e1f612f63565b5b613e2a8254613329565b613e35828285613d71565b600060209050601f831160018114613e685760008415613e56578287015190505b613e608582613de2565b865550613ec8565b601f198416613e7686613c52565b60005b82811015613e9e57848901518255600182019150602085019450602081019050613e79565b86831015613ebb5784890151613eb7601f891682613dc4565b8355505b6001600288020188555050505b505050505050565b7f5072696365206d757374206265206174206c6561737420310000000000000000600082015250565b6000613f06601883612b65565b9150613f1182613ed0565b602082019050919050565b60006020820190508181036000830152613f3581613ef9565b9050919050565b7f70726963652075737420626520657175616c20746f206c697374696e6750726960008201527f6365000000000000000000000000000000000000000000000000000000000000602082015250565b6000613f98602283612b65565b9150613fa382613f3c565b604082019050919050565b60006020820190508181036000830152613fc781613f8b565b9050919050565b6000608082019050613fe36000830187612ca1565b613ff06020830186612ca1565b613ffd6040830185612d37565b61400a6060830184612b30565b95945050505050565b7f4552433732313a20617070726f766520746f2063616c6c657200000000000000600082015250565b6000614049601983612b65565b915061405482614013565b602082019050919050565b600060208201905081810360008301526140788161403c565b9050919050565b7f4552433732313a207472616e7366657220746f206e6f6e20455243373231526560008201527f63656976657220696d706c656d656e7465720000000000000000000000000000602082015250565b60006140db603283612b65565b91506140e68261407f565b604082019050919050565b6000602082019050818103600083015261410a816140ce565b9050919050565b7f436f756e7465723a2064656372656d656e74206f766572666c6f770000000000600082015250565b6000614147601b83612b65565b915061415282614111565b602082019050919050565b600060208201905081810360008301526141768161413a565b9050919050565b600081519050919050565b600082825260208201905092915050565b60006141a48261417d565b6141ae8185614188565b93506141be818560208601612b76565b6141c781612ba0565b840191505092915050565b60006080820190506141e76000830187612ca1565b6141f46020830186612ca1565b6142016040830185612d37565b81810360608301526142138184614199565b905095945050505050565b60008151905061422d81612acb565b92915050565b60006020828403121561424957614248612a95565b5b60006142578482850161421e565b91505092915050565b7f4e487b7100000000000000000000000000000000000000000000000000000000600052601260045260246000fdfea26469706673582212205cdab9475b0f110c72a235d6f799714d98a16cd25b48abee41e03bf9945c985964736f6c63430008120033",
  "linkReferences": {},
  "deployedLinkReferences": {}
}